{
  "contractName": "PointlessNiftys",
  "abi": [
    {
      "inputs": [
        {
          "internalType": "string",
          "name": "_name",
          "type": "string"
        },
        {
          "internalType": "string",
          "name": "_symbol",
          "type": "string"
        },
        {
          "internalType": "string",
          "name": "_initBaseURI",
          "type": "string"
        }
      ],
      "stateMutability": "nonpayable",
      "type": "constructor"
    },
    {
      "anonymous": false,
      "inputs": [
        {
          "indexed": true,
          "internalType": "address",
          "name": "owner",
          "type": "address"
        },
        {
          "indexed": true,
          "internalType": "address",
          "name": "approved",
          "type": "address"
        },
        {
          "indexed": true,
          "internalType": "uint256",
          "name": "tokenId",
          "type": "uint256"
        }
      ],
      "name": "Approval",
      "type": "event"
    },
    {
      "anonymous": false,
      "inputs": [
        {
          "indexed": true,
          "internalType": "address",
          "name": "owner",
          "type": "address"
        },
        {
          "indexed": true,
          "internalType": "address",
          "name": "operator",
          "type": "address"
        },
        {
          "indexed": false,
          "internalType": "bool",
          "name": "approved",
          "type": "bool"
        }
      ],
      "name": "ApprovalForAll",
      "type": "event"
    },
    {
      "anonymous": false,
      "inputs": [
        {
          "indexed": true,
          "internalType": "address",
          "name": "previousOwner",
          "type": "address"
        },
        {
          "indexed": true,
          "internalType": "address",
          "name": "newOwner",
          "type": "address"
        }
      ],
      "name": "OwnershipTransferred",
      "type": "event"
    },
    {
      "anonymous": false,
      "inputs": [
        {
          "indexed": true,
          "internalType": "address",
          "name": "from",
          "type": "address"
        },
        {
          "indexed": true,
          "internalType": "address",
          "name": "to",
          "type": "address"
        },
        {
          "indexed": true,
          "internalType": "uint256",
          "name": "tokenId",
          "type": "uint256"
        }
      ],
      "name": "Transfer",
      "type": "event"
    },
    {
      "inputs": [
        {
          "internalType": "address",
          "name": "to",
          "type": "address"
        },
        {
          "internalType": "uint256",
          "name": "tokenId",
          "type": "uint256"
        }
      ],
      "name": "approve",
      "outputs": [],
      "stateMutability": "nonpayable",
      "type": "function"
    },
    {
      "inputs": [
        {
          "internalType": "address",
          "name": "owner",
          "type": "address"
        }
      ],
      "name": "balanceOf",
      "outputs": [
        {
          "internalType": "uint256",
          "name": "",
          "type": "uint256"
        }
      ],
      "stateMutability": "view",
      "type": "function",
      "constant": true
    },
    {
      "inputs": [],
      "name": "baseExtension",
      "outputs": [
        {
          "internalType": "string",
          "name": "",
          "type": "string"
        }
      ],
      "stateMutability": "view",
      "type": "function",
      "constant": true
    },
    {
      "inputs": [],
      "name": "baseURI",
      "outputs": [
        {
          "internalType": "string",
          "name": "",
          "type": "string"
        }
      ],
      "stateMutability": "view",
      "type": "function",
      "constant": true
    },
    {
      "inputs": [],
      "name": "cost",
      "outputs": [
        {
          "internalType": "uint256",
          "name": "",
          "type": "uint256"
        }
      ],
      "stateMutability": "view",
      "type": "function",
      "constant": true
    },
    {
      "inputs": [
        {
          "internalType": "uint256",
          "name": "tokenId",
          "type": "uint256"
        }
      ],
      "name": "getApproved",
      "outputs": [
        {
          "internalType": "address",
          "name": "",
          "type": "address"
        }
      ],
      "stateMutability": "view",
      "type": "function",
      "constant": true
    },
    {
      "inputs": [
        {
          "internalType": "address",
          "name": "owner",
          "type": "address"
        },
        {
          "internalType": "address",
          "name": "operator",
          "type": "address"
        }
      ],
      "name": "isApprovedForAll",
      "outputs": [
        {
          "internalType": "bool",
          "name": "",
          "type": "bool"
        }
      ],
      "stateMutability": "view",
      "type": "function",
      "constant": true
    },
    {
      "inputs": [],
      "name": "maxMintAmount",
      "outputs": [
        {
          "internalType": "uint256",
          "name": "",
          "type": "uint256"
        }
      ],
      "stateMutability": "view",
      "type": "function",
      "constant": true
    },
    {
      "inputs": [],
      "name": "maxSupply",
      "outputs": [
        {
          "internalType": "uint256",
          "name": "",
          "type": "uint256"
        }
      ],
      "stateMutability": "view",
      "type": "function",
      "constant": true
    },
    {
      "inputs": [],
      "name": "name",
      "outputs": [
        {
          "internalType": "string",
          "name": "",
          "type": "string"
        }
      ],
      "stateMutability": "view",
      "type": "function",
      "constant": true
    },
    {
      "inputs": [],
      "name": "owner",
      "outputs": [
        {
          "internalType": "address",
          "name": "",
          "type": "address"
        }
      ],
      "stateMutability": "view",
      "type": "function",
      "constant": true
    },
    {
      "inputs": [
        {
          "internalType": "uint256",
          "name": "tokenId",
          "type": "uint256"
        }
      ],
      "name": "ownerOf",
      "outputs": [
        {
          "internalType": "address",
          "name": "",
          "type": "address"
        }
      ],
      "stateMutability": "view",
      "type": "function",
      "constant": true
    },
    {
      "inputs": [],
      "name": "paused",
      "outputs": [
        {
          "internalType": "bool",
          "name": "",
          "type": "bool"
        }
      ],
      "stateMutability": "view",
      "type": "function",
      "constant": true
    },
    {
      "inputs": [],
      "name": "renounceOwnership",
      "outputs": [],
      "stateMutability": "nonpayable",
      "type": "function"
    },
    {
      "inputs": [
        {
          "internalType": "address",
          "name": "from",
          "type": "address"
        },
        {
          "internalType": "address",
          "name": "to",
          "type": "address"
        },
        {
          "internalType": "uint256",
          "name": "tokenId",
          "type": "uint256"
        }
      ],
      "name": "safeTransferFrom",
      "outputs": [],
      "stateMutability": "nonpayable",
      "type": "function"
    },
    {
      "inputs": [
        {
          "internalType": "address",
          "name": "from",
          "type": "address"
        },
        {
          "internalType": "address",
          "name": "to",
          "type": "address"
        },
        {
          "internalType": "uint256",
          "name": "tokenId",
          "type": "uint256"
        },
        {
          "internalType": "bytes",
          "name": "_data",
          "type": "bytes"
        }
      ],
      "name": "safeTransferFrom",
      "outputs": [],
      "stateMutability": "nonpayable",
      "type": "function"
    },
    {
      "inputs": [
        {
          "internalType": "address",
          "name": "operator",
          "type": "address"
        },
        {
          "internalType": "bool",
          "name": "approved",
          "type": "bool"
        }
      ],
      "name": "setApprovalForAll",
      "outputs": [],
      "stateMutability": "nonpayable",
      "type": "function"
    },
    {
      "inputs": [
        {
          "internalType": "bytes4",
          "name": "interfaceId",
          "type": "bytes4"
        }
      ],
      "name": "supportsInterface",
      "outputs": [
        {
          "internalType": "bool",
          "name": "",
          "type": "bool"
        }
      ],
      "stateMutability": "view",
      "type": "function",
      "constant": true
    },
    {
      "inputs": [],
      "name": "symbol",
      "outputs": [
        {
          "internalType": "string",
          "name": "",
          "type": "string"
        }
      ],
      "stateMutability": "view",
      "type": "function",
      "constant": true
    },
    {
      "inputs": [
        {
          "internalType": "uint256",
          "name": "index",
          "type": "uint256"
        }
      ],
      "name": "tokenByIndex",
      "outputs": [
        {
          "internalType": "uint256",
          "name": "",
          "type": "uint256"
        }
      ],
      "stateMutability": "view",
      "type": "function",
      "constant": true
    },
    {
      "inputs": [
        {
          "internalType": "address",
          "name": "owner",
          "type": "address"
        },
        {
          "internalType": "uint256",
          "name": "index",
          "type": "uint256"
        }
      ],
      "name": "tokenOfOwnerByIndex",
      "outputs": [
        {
          "internalType": "uint256",
          "name": "",
          "type": "uint256"
        }
      ],
      "stateMutability": "view",
      "type": "function",
      "constant": true
    },
    {
      "inputs": [],
      "name": "totalSupply",
      "outputs": [
        {
          "internalType": "uint256",
          "name": "",
          "type": "uint256"
        }
      ],
      "stateMutability": "view",
      "type": "function",
      "constant": true
    },
    {
      "inputs": [
        {
          "internalType": "address",
          "name": "from",
          "type": "address"
        },
        {
          "internalType": "address",
          "name": "to",
          "type": "address"
        },
        {
          "internalType": "uint256",
          "name": "tokenId",
          "type": "uint256"
        }
      ],
      "name": "transferFrom",
      "outputs": [],
      "stateMutability": "nonpayable",
      "type": "function"
    },
    {
      "inputs": [
        {
          "internalType": "address",
          "name": "newOwner",
          "type": "address"
        }
      ],
      "name": "transferOwnership",
      "outputs": [],
      "stateMutability": "nonpayable",
      "type": "function"
    },
    {
      "inputs": [
        {
          "internalType": "address",
          "name": "",
          "type": "address"
        }
      ],
      "name": "whitelisted",
      "outputs": [
        {
          "internalType": "bool",
          "name": "",
          "type": "bool"
        }
      ],
      "stateMutability": "view",
      "type": "function",
      "constant": true
    },
    {
      "inputs": [
        {
          "internalType": "address",
          "name": "_to",
          "type": "address"
        },
        {
          "internalType": "uint256",
          "name": "_mintAmount",
          "type": "uint256"
        }
      ],
      "name": "mint",
      "outputs": [],
      "stateMutability": "payable",
      "type": "function",
      "payable": true
    },
    {
      "inputs": [
        {
          "internalType": "address",
          "name": "_owner",
          "type": "address"
        }
      ],
      "name": "walletOfOwner",
      "outputs": [
        {
          "internalType": "uint256[]",
          "name": "",
          "type": "uint256[]"
        }
      ],
      "stateMutability": "view",
      "type": "function",
      "constant": true
    },
    {
      "inputs": [
        {
          "internalType": "uint256",
          "name": "tokenId",
          "type": "uint256"
        }
      ],
      "name": "tokenURI",
      "outputs": [
        {
          "internalType": "string",
          "name": "",
          "type": "string"
        }
      ],
      "stateMutability": "view",
      "type": "function",
      "constant": true
    },
    {
      "inputs": [
        {
          "internalType": "uint256",
          "name": "_newCost",
          "type": "uint256"
        }
      ],
      "name": "setCost",
      "outputs": [],
      "stateMutability": "nonpayable",
      "type": "function"
    },
    {
      "inputs": [
        {
          "internalType": "uint256",
          "name": "_newmaxMintAmount",
          "type": "uint256"
        }
      ],
      "name": "setmaxMintAmount",
      "outputs": [],
      "stateMutability": "nonpayable",
      "type": "function"
    },
    {
      "inputs": [
        {
          "internalType": "string",
          "name": "_newBaseURI",
          "type": "string"
        }
      ],
      "name": "setBaseURI",
      "outputs": [],
      "stateMutability": "nonpayable",
      "type": "function"
    },
    {
      "inputs": [
        {
          "internalType": "string",
          "name": "_newBaseExtension",
          "type": "string"
        }
      ],
      "name": "setBaseExtension",
      "outputs": [],
      "stateMutability": "nonpayable",
      "type": "function"
    },
    {
      "inputs": [
        {
          "internalType": "bool",
          "name": "_state",
          "type": "bool"
        }
      ],
      "name": "pause",
      "outputs": [],
      "stateMutability": "nonpayable",
      "type": "function"
    },
    {
      "inputs": [
        {
          "internalType": "address",
          "name": "_user",
          "type": "address"
        }
      ],
      "name": "whitelistUser",
      "outputs": [],
      "stateMutability": "nonpayable",
      "type": "function"
    },
    {
      "inputs": [
        {
          "internalType": "address",
          "name": "_user",
          "type": "address"
        }
      ],
      "name": "removeWhitelistUser",
      "outputs": [],
      "stateMutability": "nonpayable",
      "type": "function"
    },
    {
      "inputs": [],
      "name": "withdraw",
      "outputs": [],
      "stateMutability": "payable",
      "type": "function",
      "payable": true
    }
  ],
  "bytecode": "0x60c06040526005608081905264173539b7b760d91b60a09081526200002891600c919062000903565b5066b1a2bc2ec50000600d556014600e819055600f556010805460ff191690553480156200005557600080fd5b506040516200310b3803806200310b833981016040819052620000789162000a7f565b8251839083906200009190600090602085019062000903565b508051620000a790600190602084019062000903565b505050620000c4620000be620000e560201b60201c565b620000e9565b620000cf816200013b565b620000dc336001620001b4565b50505062000c8d565b3390565b600a80546001600160a01b038381166001600160a01b0319831681179093556040519116919082907f8be0079c531659141344cd1fd0a4f28419497f9722a3daafe3b4186f6b6457e090600090a35050565b600a546001600160a01b031633146200019b5760405162461bcd60e51b815260206004820181905260248201527f4f776e61626c653a2063616c6c6572206973206e6f7420746865206f776e657260448201526064015b60405180910390fd5b8051620001b090600b90602084019062000903565b5050565b6000620001c060085490565b60105490915060ff1615620001d457600080fd5b60008211620001e257600080fd5b600f54821115620001f257600080fd5b600e5462000201838362000b26565b11156200020d57600080fd5b600a546001600160a01b031633146200025a573360009081526011602052604090205460ff1615156001146200025a5781600d546200024d919062000b41565b3410156200025a57600080fd5b60015b82811162000291576200027c8462000276838562000b26565b62000297565b80620002888162000b63565b9150506200025d565b50505050565b620001b0828260405180602001604052806000815250620002b960201b60201c565b620002c5838362000331565b620002d4600084848462000487565b6200032c5760405162461bcd60e51b81526020600482015260326024820152600080516020620030eb83398151915260448201527131b2b4bb32b91034b6b83632b6b2b73a32b960711b606482015260840162000192565b505050565b6001600160a01b038216620003895760405162461bcd60e51b815260206004820181905260248201527f4552433732313a206d696e7420746f20746865207a65726f2061646472657373604482015260640162000192565b6000818152600260205260409020546001600160a01b031615620003f05760405162461bcd60e51b815260206004820152601c60248201527f4552433732313a20746f6b656e20616c7265616479206d696e74656400000000604482015260640162000192565b620003fe60008383620005e0565b6001600160a01b03821660009081526003602052604081208054600192906200042990849062000b26565b909155505060008181526002602052604080822080546001600160a01b0319166001600160a01b03861690811790915590518392907fddf252ad1be2c89b69c2b068fc378daa952ba7f163c4a11628f55a4df523b3ef908290a45050565b6000620004a8846001600160a01b0316620006bc60201b6200124c1760201c565b15620005d457604051630a85bd0160e11b81526001600160a01b0385169063150b7a0290620004e290339089908890889060040162000b81565b6020604051808303816000875af192505050801562000520575060408051601f3d908101601f191682019092526200051d9181019062000bd7565b60015b620005b9573d80801562000551576040519150601f19603f3d011682016040523d82523d6000602084013e62000556565b606091505b508051620005b15760405162461bcd60e51b81526020600482015260326024820152600080516020620030eb83398151915260448201527131b2b4bb32b91034b6b83632b6b2b73a32b960711b606482015260840162000192565b805181602001fd5b6001600160e01b031916630a85bd0160e11b149050620005d8565b5060015b949350505050565b620005f88383836200032c60201b620009401760201c565b6001600160a01b03831662000656576200065081600880546000838152600960205260408120829055600182018355919091527ff3f7a9fe364faab93b216da50a3214154f22a0a2b415b23a84c8169e8b636ee30155565b6200067c565b816001600160a01b0316836001600160a01b0316146200067c576200067c8382620006c2565b6001600160a01b03821662000696576200032c816200076f565b826001600160a01b0316826001600160a01b0316146200032c576200032c828262000829565b3b151590565b60006001620006dc846200087a60201b62000f511760201c565b620006e8919062000c0a565b6000838152600760205260409020549091508082146200073c576001600160a01b03841660009081526006602090815260408083208584528252808320548484528184208190558352600790915290208190555b5060009182526007602090815260408084208490556001600160a01b039094168352600681528383209183525290812055565b600854600090620007839060019062000c0a565b60008381526009602052604081205460088054939450909284908110620007ae57620007ae62000c24565b906000526020600020015490508060088381548110620007d257620007d262000c24565b60009182526020808320909101929092558281526009909152604080822084905585825281205560088054806200080d576200080d62000c3a565b6001900381819060005260206000200160009055905550505050565b600062000841836200087a60201b62000f511760201c565b6001600160a01b039093166000908152600660209081526040808320868452825280832085905593825260079052919091209190915550565b60006001600160a01b038216620008e75760405162461bcd60e51b815260206004820152602a60248201527f4552433732313a2062616c616e636520717565727920666f7220746865207a65604482015269726f206164647265737360b01b606482015260840162000192565b506001600160a01b031660009081526003602052604090205490565b828054620009119062000c50565b90600052602060002090601f01602090048101928262000935576000855562000980565b82601f106200095057805160ff191683800117855562000980565b8280016001018555821562000980579182015b828111156200098057825182559160200191906001019062000963565b506200098e92915062000992565b5090565b5b808211156200098e576000815560010162000993565b634e487b7160e01b600052604160045260246000fd5b60005b83811015620009dc578181015183820152602001620009c2565b83811115620002915750506000910152565b600082601f83011262000a0057600080fd5b81516001600160401b038082111562000a1d5762000a1d620009a9565b604051601f8301601f19908116603f0116810190828211818310171562000a485762000a48620009a9565b8160405283815286602085880101111562000a6257600080fd5b62000a75846020830160208901620009bf565b9695505050505050565b60008060006060848603121562000a9557600080fd5b83516001600160401b038082111562000aad57600080fd5b62000abb87838801620009ee565b9450602086015191508082111562000ad257600080fd5b62000ae087838801620009ee565b9350604086015191508082111562000af757600080fd5b5062000b0686828701620009ee565b9150509250925092565b634e487b7160e01b600052601160045260246000fd5b6000821982111562000b3c5762000b3c62000b10565b500190565b600081600019048311821515161562000b5e5762000b5e62000b10565b500290565b600060001982141562000b7a5762000b7a62000b10565b5060010190565b600060018060a01b03808716835280861660208401525083604083015260806060830152825180608084015262000bc08160a0850160208701620009bf565b601f01601f19169190910160a00195945050505050565b60006020828403121562000bea57600080fd5b81516001600160e01b03198116811462000c0357600080fd5b9392505050565b60008282101562000c1f5762000c1f62000b10565b500390565b634e487b7160e01b600052603260045260246000fd5b634e487b7160e01b600052603160045260246000fd5b600181811c9082168062000c6557607f821691505b6020821081141562000c8757634e487b7160e01b600052602260045260246000fd5b50919050565b61244e8062000c9d6000396000f3fe60806040526004361061020f5760003560e01c806355f804b311610118578063a22cb465116100a0578063d5abeb011161006f578063d5abeb01146105c8578063d936547e146105de578063da3ef23f1461060e578063e985e9c51461062e578063f2fde38b1461067757600080fd5b8063a22cb46514610553578063b88d4fde14610573578063c668286214610593578063c87b56dd146105a857600080fd5b806370a08231116100e757806370a08231146104cb578063715018a6146104eb5780637f00c7a6146105005780638da5cb5b1461052057806395d89b411461053e57600080fd5b806355f804b31461045c5780635c975abb1461047c5780636352211e146104965780636c0360eb146104b657600080fd5b80632f745c591161019b57806342842e0e1161016a57806342842e0e146103af578063438b6300146103cf57806344a0d68a146103fc5780634a4c560d1461041c5780634f6ccce71461043c57600080fd5b80632f745c591461035457806330cc7ae0146103745780633ccfd60b1461039457806340c10f191461039c57600080fd5b8063095ea7b3116101e2578063095ea7b3146102c557806313faede6146102e557806318160ddd14610309578063239c70ae1461031e57806323b872dd1461033457600080fd5b806301ffc9a71461021457806302329a291461024957806306fdde031461026b578063081812fc1461028d575b600080fd5b34801561022057600080fd5b5061023461022f366004611da3565b610697565b60405190151581526020015b60405180910390f35b34801561025557600080fd5b50610269610264366004611dd5565b6106c2565b005b34801561027757600080fd5b50610280610708565b6040516102409190611e48565b34801561029957600080fd5b506102ad6102a8366004611e5b565b61079a565b6040516001600160a01b039091168152602001610240565b3480156102d157600080fd5b506102696102e0366004611e8b565b61082f565b3480156102f157600080fd5b506102fb600d5481565b604051908152602001610240565b34801561031557600080fd5b506008546102fb565b34801561032a57600080fd5b506102fb600f5481565b34801561034057600080fd5b5061026961034f366004611eb5565b610945565b34801561036057600080fd5b506102fb61036f366004611e8b565b610976565b34801561038057600080fd5b5061026961038f366004611ef1565b610a0c565b610269610a57565b6102696103aa366004611e8b565b610b73565b3480156103bb57600080fd5b506102696103ca366004611eb5565b610c42565b3480156103db57600080fd5b506103ef6103ea366004611ef1565b610c5d565b6040516102409190611f0c565b34801561040857600080fd5b50610269610417366004611e5b565b610cff565b34801561042857600080fd5b50610269610437366004611ef1565b610d2e565b34801561044857600080fd5b506102fb610457366004611e5b565b610d7c565b34801561046857600080fd5b50610269610477366004611fdc565b610e0f565b34801561048857600080fd5b506010546102349060ff1681565b3480156104a257600080fd5b506102ad6104b1366004611e5b565b610e4c565b3480156104c257600080fd5b50610280610ec3565b3480156104d757600080fd5b506102fb6104e6366004611ef1565b610f51565b3480156104f757600080fd5b50610269610fd8565b34801561050c57600080fd5b5061026961051b366004611e5b565b61100e565b34801561052c57600080fd5b50600a546001600160a01b03166102ad565b34801561054a57600080fd5b5061028061103d565b34801561055f57600080fd5b5061026961056e366004612025565b61104c565b34801561057f57600080fd5b5061026961058e366004612058565b611057565b34801561059f57600080fd5b50610280611089565b3480156105b457600080fd5b506102806105c3366004611e5b565b611096565b3480156105d457600080fd5b506102fb600e5481565b3480156105ea57600080fd5b506102346105f9366004611ef1565b60116020526000908152604090205460ff1681565b34801561061a57600080fd5b50610269610629366004611fdc565b611174565b34801561063a57600080fd5b506102346106493660046120d4565b6001600160a01b03918216600090815260056020908152604080832093909416825291909152205460ff1690565b34801561068357600080fd5b50610269610692366004611ef1565b6111b1565b60006001600160e01b0319821663780e9d6360e01b14806106bc57506106bc82611252565b92915050565b600a546001600160a01b031633146106f55760405162461bcd60e51b81526004016106ec906120fe565b60405180910390fd5b6010805460ff1916911515919091179055565b60606000805461071790612133565b80601f016020809104026020016040519081016040528092919081815260200182805461074390612133565b80156107905780601f1061076557610100808354040283529160200191610790565b820191906000526020600020905b81548152906001019060200180831161077357829003601f168201915b5050505050905090565b6000818152600260205260408120546001600160a01b03166108135760405162461bcd60e51b815260206004820152602c60248201527f4552433732313a20617070726f76656420717565727920666f72206e6f6e657860448201526b34b9ba32b73a103a37b5b2b760a11b60648201526084016106ec565b506000908152600460205260409020546001600160a01b031690565b600061083a82610e4c565b9050806001600160a01b0316836001600160a01b031614156108a85760405162461bcd60e51b815260206004820152602160248201527f4552433732313a20617070726f76616c20746f2063757272656e74206f776e656044820152603960f91b60648201526084016106ec565b336001600160a01b03821614806108c457506108c48133610649565b6109365760405162461bcd60e51b815260206004820152603860248201527f4552433732313a20617070726f76652063616c6c6572206973206e6f74206f7760448201527f6e6572206e6f7220617070726f76656420666f7220616c6c000000000000000060648201526084016106ec565b61094083836112a2565b505050565b61094f3382611310565b61096b5760405162461bcd60e51b81526004016106ec9061216e565b610940838383611407565b600061098183610f51565b82106109e35760405162461bcd60e51b815260206004820152602b60248201527f455243373231456e756d657261626c653a206f776e657220696e646578206f7560448201526a74206f6620626f756e647360a81b60648201526084016106ec565b506001600160a01b03919091166000908152600660209081526040808320938352929052205490565b600a546001600160a01b03163314610a365760405162461bcd60e51b81526004016106ec906120fe565b6001600160a01b03166000908152601160205260409020805460ff19169055565b600a546001600160a01b03163314610a815760405162461bcd60e51b81526004016106ec906120fe565b600073943590a42c27d08e3744202c4ae5ed55c2de240d6064610aa54760056121d5565b610aaf919061220a565b604051600081818185875af1925050503d8060008114610aeb576040519150601f19603f3d011682016040523d82523d6000602084013e610af0565b606091505b5050905080610afe57600080fd5b6000610b12600a546001600160a01b031690565b6001600160a01b03164760405160006040518083038185875af1925050503d8060008114610b5c576040519150601f19603f3d011682016040523d82523d6000602084013e610b61565b606091505b5050905080610b6f57600080fd5b5050565b6000610b7e60085490565b60105490915060ff1615610b9157600080fd5b60008211610b9e57600080fd5b600f54821115610bad57600080fd5b600e54610bba838361221e565b1115610bc557600080fd5b600a546001600160a01b03163314610c0d573360009081526011602052604090205460ff161515600114610c0d5781600d54610c0191906121d5565b341015610c0d57600080fd5b60015b828111610c3c57610c2a84610c25838561221e565b6115b2565b80610c3481612236565b915050610c10565b50505050565b61094083838360405180602001604052806000815250611057565b60606000610c6a83610f51565b905060008167ffffffffffffffff811115610c8757610c87611f50565b604051908082528060200260200182016040528015610cb0578160200160208202803683370190505b50905060005b82811015610cf757610cc88582610976565b828281518110610cda57610cda612251565b602090810291909101015280610cef81612236565b915050610cb6565b509392505050565b600a546001600160a01b03163314610d295760405162461bcd60e51b81526004016106ec906120fe565b600d55565b600a546001600160a01b03163314610d585760405162461bcd60e51b81526004016106ec906120fe565b6001600160a01b03166000908152601160205260409020805460ff19166001179055565b6000610d8760085490565b8210610dea5760405162461bcd60e51b815260206004820152602c60248201527f455243373231456e756d657261626c653a20676c6f62616c20696e646578206f60448201526b7574206f6620626f756e647360a01b60648201526084016106ec565b60088281548110610dfd57610dfd612251565b90600052602060002001549050919050565b600a546001600160a01b03163314610e395760405162461bcd60e51b81526004016106ec906120fe565b8051610b6f90600b906020840190611cf4565b6000818152600260205260408120546001600160a01b0316806106bc5760405162461bcd60e51b815260206004820152602960248201527f4552433732313a206f776e657220717565727920666f72206e6f6e657869737460448201526832b73a103a37b5b2b760b91b60648201526084016106ec565b600b8054610ed090612133565b80601f0160208091040260200160405190810160405280929190818152602001828054610efc90612133565b8015610f495780601f10610f1e57610100808354040283529160200191610f49565b820191906000526020600020905b815481529060010190602001808311610f2c57829003601f168201915b505050505081565b60006001600160a01b038216610fbc5760405162461bcd60e51b815260206004820152602a60248201527f4552433732313a2062616c616e636520717565727920666f7220746865207a65604482015269726f206164647265737360b01b60648201526084016106ec565b506001600160a01b031660009081526003602052604090205490565b600a546001600160a01b031633146110025760405162461bcd60e51b81526004016106ec906120fe565b61100c60006115cc565b565b600a546001600160a01b031633146110385760405162461bcd60e51b81526004016106ec906120fe565b600f55565b60606001805461071790612133565b610b6f33838361161e565b6110613383611310565b61107d5760405162461bcd60e51b81526004016106ec9061216e565b610c3c848484846116ed565b600c8054610ed090612133565b6000818152600260205260409020546060906001600160a01b03166111155760405162461bcd60e51b815260206004820152602f60248201527f4552433732314d657461646174613a2055524920717565727920666f72206e6f60448201526e3732bc34b9ba32b73a103a37b5b2b760891b60648201526084016106ec565b600061111f611720565b9050600081511161113f576040518060200160405280600081525061116d565b806111498461172f565b600c60405160200161115d93929190612267565b6040516020818303038152906040525b9392505050565b600a546001600160a01b0316331461119e5760405162461bcd60e51b81526004016106ec906120fe565b8051610b6f90600c906020840190611cf4565b600a546001600160a01b031633146111db5760405162461bcd60e51b81526004016106ec906120fe565b6001600160a01b0381166112405760405162461bcd60e51b815260206004820152602660248201527f4f776e61626c653a206e6577206f776e657220697320746865207a65726f206160448201526564647265737360d01b60648201526084016106ec565b611249816115cc565b50565b3b151590565b60006001600160e01b031982166380ac58cd60e01b148061128357506001600160e01b03198216635b5e139f60e01b145b806106bc57506301ffc9a760e01b6001600160e01b03198316146106bc565b600081815260046020526040902080546001600160a01b0319166001600160a01b03841690811790915581906112d782610e4c565b6001600160a01b03167f8c5be1e5ebec7d5bd14f71427d1e84f3dd0314c0f7b2291e5b200ac8c7c3b92560405160405180910390a45050565b6000818152600260205260408120546001600160a01b03166113895760405162461bcd60e51b815260206004820152602c60248201527f4552433732313a206f70657261746f7220717565727920666f72206e6f6e657860448201526b34b9ba32b73a103a37b5b2b760a11b60648201526084016106ec565b600061139483610e4c565b9050806001600160a01b0316846001600160a01b031614806113cf5750836001600160a01b03166113c48461079a565b6001600160a01b0316145b806113ff57506001600160a01b0380821660009081526005602090815260408083209388168352929052205460ff165b949350505050565b826001600160a01b031661141a82610e4c565b6001600160a01b0316146114825760405162461bcd60e51b815260206004820152602960248201527f4552433732313a207472616e73666572206f6620746f6b656e2074686174206960448201526839903737ba1037bbb760b91b60648201526084016106ec565b6001600160a01b0382166114e45760405162461bcd60e51b8152602060048201526024808201527f4552433732313a207472616e7366657220746f20746865207a65726f206164646044820152637265737360e01b60648201526084016106ec565b6114ef83838361182d565b6114fa6000826112a2565b6001600160a01b038316600090815260036020526040812080546001929061152390849061232b565b90915550506001600160a01b038216600090815260036020526040812080546001929061155190849061221e565b909155505060008181526002602052604080822080546001600160a01b0319166001600160a01b0386811691821790925591518493918716917fddf252ad1be2c89b69c2b068fc378daa952ba7f163c4a11628f55a4df523b3ef91a4505050565b610b6f8282604051806020016040528060008152506118e5565b600a80546001600160a01b038381166001600160a01b0319831681179093556040519116919082907f8be0079c531659141344cd1fd0a4f28419497f9722a3daafe3b4186f6b6457e090600090a35050565b816001600160a01b0316836001600160a01b031614156116805760405162461bcd60e51b815260206004820152601960248201527f4552433732313a20617070726f766520746f2063616c6c65720000000000000060448201526064016106ec565b6001600160a01b03838116600081815260056020908152604080832094871680845294825291829020805460ff191686151590811790915591519182527f17307eab39ab6107e8899845ad3d59bd9653f200f220920489ca2b5937696c31910160405180910390a3505050565b6116f8848484611407565b61170484848484611918565b610c3c5760405162461bcd60e51b81526004016106ec90612342565b6060600b805461071790612133565b6060816117535750506040805180820190915260018152600360fc1b602082015290565b8160005b811561177d578061176781612236565b91506117769050600a8361220a565b9150611757565b60008167ffffffffffffffff81111561179857611798611f50565b6040519080825280601f01601f1916602001820160405280156117c2576020820181803683370190505b5090505b84156113ff576117d760018361232b565b91506117e4600a86612394565b6117ef90603061221e565b60f81b81838151811061180457611804612251565b60200101906001600160f81b031916908160001a905350611826600a8661220a565b94506117c6565b6001600160a01b0383166118885761188381600880546000838152600960205260408120829055600182018355919091527ff3f7a9fe364faab93b216da50a3214154f22a0a2b415b23a84c8169e8b636ee30155565b6118ab565b816001600160a01b0316836001600160a01b0316146118ab576118ab8382611a16565b6001600160a01b0382166118c25761094081611ab3565b826001600160a01b0316826001600160a01b031614610940576109408282611b62565b6118ef8383611ba6565b6118fc6000848484611918565b6109405760405162461bcd60e51b81526004016106ec90612342565b60006001600160a01b0384163b15611a0b57604051630a85bd0160e11b81526001600160a01b0385169063150b7a029061195c9033908990889088906004016123a8565b6020604051808303816000875af1925050508015611997575060408051601f3d908101601f19168201909252611994918101906123e5565b60015b6119f1573d8080156119c5576040519150601f19603f3d011682016040523d82523d6000602084013e6119ca565b606091505b5080516119e95760405162461bcd60e51b81526004016106ec90612342565b805181602001fd5b6001600160e01b031916630a85bd0160e11b1490506113ff565b506001949350505050565b60006001611a2384610f51565b611a2d919061232b565b600083815260076020526040902054909150808214611a80576001600160a01b03841660009081526006602090815260408083208584528252808320548484528184208190558352600790915290208190555b5060009182526007602090815260408084208490556001600160a01b039094168352600681528383209183525290812055565b600854600090611ac59060019061232b565b60008381526009602052604081205460088054939450909284908110611aed57611aed612251565b906000526020600020015490508060088381548110611b0e57611b0e612251565b6000918252602080832090910192909255828152600990915260408082208490558582528120556008805480611b4657611b46612402565b6001900381819060005260206000200160009055905550505050565b6000611b6d83610f51565b6001600160a01b039093166000908152600660209081526040808320868452825280832085905593825260079052919091209190915550565b6001600160a01b038216611bfc5760405162461bcd60e51b815260206004820181905260248201527f4552433732313a206d696e7420746f20746865207a65726f206164647265737360448201526064016106ec565b6000818152600260205260409020546001600160a01b031615611c615760405162461bcd60e51b815260206004820152601c60248201527f4552433732313a20746f6b656e20616c7265616479206d696e7465640000000060448201526064016106ec565b611c6d6000838361182d565b6001600160a01b0382166000908152600360205260408120805460019290611c9690849061221e565b909155505060008181526002602052604080822080546001600160a01b0319166001600160a01b03861690811790915590518392907fddf252ad1be2c89b69c2b068fc378daa952ba7f163c4a11628f55a4df523b3ef908290a45050565b828054611d0090612133565b90600052602060002090601f016020900481019282611d225760008555611d68565b82601f10611d3b57805160ff1916838001178555611d68565b82800160010185558215611d68579182015b82811115611d68578251825591602001919060010190611d4d565b50611d74929150611d78565b5090565b5b80821115611d745760008155600101611d79565b6001600160e01b03198116811461124957600080fd5b600060208284031215611db557600080fd5b813561116d81611d8d565b80358015158114611dd057600080fd5b919050565b600060208284031215611de757600080fd5b61116d82611dc0565b60005b83811015611e0b578181015183820152602001611df3565b83811115610c3c5750506000910152565b60008151808452611e34816020860160208601611df0565b601f01601f19169290920160200192915050565b60208152600061116d6020830184611e1c565b600060208284031215611e6d57600080fd5b5035919050565b80356001600160a01b0381168114611dd057600080fd5b60008060408385031215611e9e57600080fd5b611ea783611e74565b946020939093013593505050565b600080600060608486031215611eca57600080fd5b611ed384611e74565b9250611ee160208501611e74565b9150604084013590509250925092565b600060208284031215611f0357600080fd5b61116d82611e74565b6020808252825182820181905260009190848201906040850190845b81811015611f4457835183529284019291840191600101611f28565b50909695505050505050565b634e487b7160e01b600052604160045260246000fd5b600067ffffffffffffffff80841115611f8157611f81611f50565b604051601f8501601f19908116603f01168101908282118183101715611fa957611fa9611f50565b81604052809350858152868686011115611fc257600080fd5b858560208301376000602087830101525050509392505050565b600060208284031215611fee57600080fd5b813567ffffffffffffffff81111561200557600080fd5b8201601f8101841361201657600080fd5b6113ff84823560208401611f66565b6000806040838503121561203857600080fd5b61204183611e74565b915061204f60208401611dc0565b90509250929050565b6000806000806080858703121561206e57600080fd5b61207785611e74565b935061208560208601611e74565b925060408501359150606085013567ffffffffffffffff8111156120a857600080fd5b8501601f810187136120b957600080fd5b6120c887823560208401611f66565b91505092959194509250565b600080604083850312156120e757600080fd5b6120f083611e74565b915061204f60208401611e74565b6020808252818101527f4f776e61626c653a2063616c6c6572206973206e6f7420746865206f776e6572604082015260600190565b600181811c9082168061214757607f821691505b6020821081141561216857634e487b7160e01b600052602260045260246000fd5b50919050565b60208082526031908201527f4552433732313a207472616e736665722063616c6c6572206973206e6f74206f6040820152701ddb995c881b9bdc88185c1c1c9bdd9959607a1b606082015260800190565b634e487b7160e01b600052601160045260246000fd5b60008160001904831182151516156121ef576121ef6121bf565b500290565b634e487b7160e01b600052601260045260246000fd5b600082612219576122196121f4565b500490565b60008219821115612231576122316121bf565b500190565b600060001982141561224a5761224a6121bf565b5060010190565b634e487b7160e01b600052603260045260246000fd5b60008451602061227a8285838a01611df0565b85519184019161228d8184848a01611df0565b8554920191600090600181811c90808316806122aa57607f831692505b8583108114156122c857634e487b7160e01b85526022600452602485fd5b8080156122dc57600181146122ed5761231a565b60ff1985168852838801955061231a565b60008b81526020902060005b858110156123125781548a8201529084019088016122f9565b505083880195505b50939b9a5050505050505050505050565b60008282101561233d5761233d6121bf565b500390565b60208082526032908201527f4552433732313a207472616e7366657220746f206e6f6e20455243373231526560408201527131b2b4bb32b91034b6b83632b6b2b73a32b960711b606082015260800190565b6000826123a3576123a36121f4565b500690565b6001600160a01b03858116825284166020820152604081018390526080606082018190526000906123db90830184611e1c565b9695505050505050565b6000602082840312156123f757600080fd5b815161116d81611d8d565b634e487b7160e01b600052603160045260246000fdfea2646970667358221220778a8a035dbbb6e4a5d8edda872e38049f3529f5d17184fe417373c2bb45779364736f6c634300080a00334552433732313a207472616e7366657220746f206e6f6e204552433732315265",
  "immutableReferences": {},
  "source": "// SPDX-License-Identifier: GPL-3.0\r\n\r\n// Amended by HashLips\r\n/**\r\n    !Disclaimer!\r\n    These contracts have been used to create tutorials,\r\n    and was created for the purpose to teach people\r\n    how to create smart contracts on the blockchain.\r\n    please review this code on your own before using any of\r\n    the following code for production.\r\n    HashLips will not be liable in any way if for the use \r\n    of the code. That being said, the code has been tested \r\n    to the best of the developers' knowledge to work as intended.\r\n*/\r\n\r\npragma solidity >=0.7.0 <0.9.0;\r\n\r\nimport \"@openzeppelin/contracts/token/ERC721/extensions/ERC721Enumerable.sol\";\r\nimport \"@openzeppelin/contracts/access/Ownable.sol\";\r\n\r\ncontract PointlessNiftys is ERC721Enumerable, Ownable {\r\n  using Strings for uint256;\r\n\r\n  string public baseURI;\r\n  string public baseExtension = \".json\";\r\n  uint256 public cost = 0.05 ether;\r\n  uint256 public maxSupply = 20;\r\n  uint256 public maxMintAmount = 20;\r\n  bool public paused = false;\r\n  mapping(address => bool) public whitelisted;\r\n\r\n  constructor(\r\n    string memory _name,\r\n    string memory _symbol,\r\n    string memory _initBaseURI\r\n  ) ERC721(_name, _symbol) {\r\n    setBaseURI(_initBaseURI);\r\n    mint(msg.sender, 1);\r\n  }\r\n\r\n  // internal\r\n  function _baseURI() internal view virtual override returns (string memory) {\r\n    return baseURI;\r\n  }\r\n\r\n  // public\r\n  function mint(address _to, uint256 _mintAmount) public payable {\r\n    uint256 supply = totalSupply();\r\n    require(!paused);\r\n    require(_mintAmount > 0);\r\n    require(_mintAmount <= maxMintAmount);\r\n    require(supply + _mintAmount <= maxSupply);\r\n\r\n    if (msg.sender != owner()) {\r\n        if(whitelisted[msg.sender] != true) {\r\n          require(msg.value >= cost * _mintAmount);\r\n        }\r\n    }\r\n\r\n    for (uint256 i = 1; i <= _mintAmount; i++) {\r\n      _safeMint(_to, supply + i);\r\n    }\r\n  }\r\n\r\n  function walletOfOwner(address _owner)\r\n    public\r\n    view\r\n    returns (uint256[] memory)\r\n  {\r\n    uint256 ownerTokenCount = balanceOf(_owner);\r\n    uint256[] memory tokenIds = new uint256[](ownerTokenCount);\r\n    for (uint256 i; i < ownerTokenCount; i++) {\r\n      tokenIds[i] = tokenOfOwnerByIndex(_owner, i);\r\n    }\r\n    return tokenIds;\r\n  }\r\n\r\n  function tokenURI(uint256 tokenId)\r\n    public\r\n    view\r\n    virtual\r\n    override\r\n    returns (string memory)\r\n  {\r\n    require(\r\n      _exists(tokenId),\r\n      \"ERC721Metadata: URI query for nonexistent token\"\r\n    );\r\n\r\n    string memory currentBaseURI = _baseURI();\r\n    return bytes(currentBaseURI).length > 0\r\n        ? string(abi.encodePacked(currentBaseURI, tokenId.toString(), baseExtension))\r\n        : \"\";\r\n  }\r\n\r\n  //only owner\r\n  function setCost(uint256 _newCost) public onlyOwner {\r\n    cost = _newCost;\r\n  }\r\n\r\n  function setmaxMintAmount(uint256 _newmaxMintAmount) public onlyOwner {\r\n    maxMintAmount = _newmaxMintAmount;\r\n  }\r\n\r\n  function setBaseURI(string memory _newBaseURI) public onlyOwner {\r\n    baseURI = _newBaseURI;\r\n  }\r\n\r\n  function setBaseExtension(string memory _newBaseExtension) public onlyOwner {\r\n    baseExtension = _newBaseExtension;\r\n  }\r\n\r\n  function pause(bool _state) public onlyOwner {\r\n    paused = _state;\r\n  }\r\n \r\n function whitelistUser(address _user) public onlyOwner {\r\n    whitelisted[_user] = true;\r\n  }\r\n \r\n  function removeWhitelistUser(address _user) public onlyOwner {\r\n    whitelisted[_user] = false;\r\n  }\r\n\r\n  function withdraw() public payable onlyOwner {\r\n    // This will pay HashLips 5% of the initial sale.\r\n    // You can remove this if you want, or keep it in to support HashLips and his channel.\r\n    // =============================================================================\r\n    (bool hs, ) = payable(0x943590A42C27D08e3744202c4Ae5eD55c2dE240D).call{value: address(this).balance * 5 / 100}(\"\");\r\n    require(hs);\r\n    // =============================================================================\r\n    \r\n    // This will payout the owner 95% of the contract balance.\r\n    // Do not remove this otherwise you will not be able to withdraw the funds.\r\n    // =============================================================================\r\n    (bool os, ) = payable(owner()).call{value: address(this).balance}(\"\");\r\n    require(os);\r\n    // =============================================================================\r\n  }\r\n}",
  "sourcePath": "C:\\Users\\Marco\\Documents\\School\\Blockchain dev\\pointless_niftys_4\\contracts\\PointlessNiftys.sol",
  "compiler": {
    "name": "solc",
    "version": "0.8.10+commit.fc410830.Emscripten.clang"
  },
  "schemaVersion": "3.4.3",
  "updatedAt": "2022-02-01T02:10:21.726Z",
  "networkType": "ethereum",
  "devdoc": {
    "kind": "dev",
    "methods": {
      "approve(address,uint256)": {
        "details": "See {IERC721-approve}."
      },
      "balanceOf(address)": {
        "details": "See {IERC721-balanceOf}."
      },
      "getApproved(uint256)": {
        "details": "See {IERC721-getApproved}."
      },
      "isApprovedForAll(address,address)": {
        "details": "See {IERC721-isApprovedForAll}."
      },
      "name()": {
        "details": "See {IERC721Metadata-name}."
      },
      "owner()": {
        "details": "Returns the address of the current owner."
      },
      "ownerOf(uint256)": {
        "details": "See {IERC721-ownerOf}."
      },
      "renounceOwnership()": {
        "details": "Leaves the contract without owner. It will not be possible to call `onlyOwner` functions anymore. Can only be called by the current owner. NOTE: Renouncing ownership will leave the contract without an owner, thereby removing any functionality that is only available to the owner."
      },
      "safeTransferFrom(address,address,uint256)": {
        "details": "See {IERC721-safeTransferFrom}."
      },
      "safeTransferFrom(address,address,uint256,bytes)": {
        "details": "See {IERC721-safeTransferFrom}."
      },
      "setApprovalForAll(address,bool)": {
        "details": "See {IERC721-setApprovalForAll}."
      },
      "supportsInterface(bytes4)": {
        "details": "See {IERC165-supportsInterface}."
      },
      "symbol()": {
        "details": "See {IERC721Metadata-symbol}."
      },
      "tokenByIndex(uint256)": {
        "details": "See {IERC721Enumerable-tokenByIndex}."
      },
      "tokenOfOwnerByIndex(address,uint256)": {
        "details": "See {IERC721Enumerable-tokenOfOwnerByIndex}."
      },
      "tokenURI(uint256)": {
        "details": "See {IERC721Metadata-tokenURI}."
      },
      "totalSupply()": {
        "details": "See {IERC721Enumerable-totalSupply}."
      },
      "transferFrom(address,address,uint256)": {
        "details": "See {IERC721-transferFrom}."
      },
      "transferOwnership(address)": {
        "details": "Transfers ownership of the contract to a new account (`newOwner`). Can only be called by the current owner."
      }
    },
    "version": 1
  },
  "userdoc": {
    "kind": "user",
    "methods": {},
    "version": 1
  }
}